
PWM_wd2.elf:     file format elf32-avr

Sections:
Idx Name          Size      VMA       LMA       File off  Algn
  0 .data         00000000  00800200  00800200  00000184  2**0
                  CONTENTS, ALLOC, LOAD, DATA
  1 .text         00000130  00000000  00000000  00000054  2**1
                  CONTENTS, ALLOC, LOAD, READONLY, CODE
  2 .comment      00000030  00000000  00000000  00000184  2**0
                  CONTENTS, READONLY
  3 .note.gnu.avr.deviceinfo 00000040  00000000  00000000  000001b4  2**2
                  CONTENTS, READONLY
  4 .debug_aranges 00000028  00000000  00000000  000001f4  2**0
                  CONTENTS, READONLY, DEBUGGING
  5 .debug_info   00000c5b  00000000  00000000  0000021c  2**0
                  CONTENTS, READONLY, DEBUGGING
  6 .debug_abbrev 00000b85  00000000  00000000  00000e77  2**0
                  CONTENTS, READONLY, DEBUGGING
  7 .debug_line   00000274  00000000  00000000  000019fc  2**0
                  CONTENTS, READONLY, DEBUGGING
  8 .debug_frame  00000034  00000000  00000000  00001c70  2**2
                  CONTENTS, READONLY, DEBUGGING
  9 .debug_str    00000568  00000000  00000000  00001ca4  2**0
                  CONTENTS, READONLY, DEBUGGING
 10 .debug_ranges 00000018  00000000  00000000  0000220c  2**0
                  CONTENTS, READONLY, DEBUGGING

Disassembly of section .text:

00000000 <__vectors>:
   0:	71 c0       	rjmp	.+226    	; 0xe4 <__ctors_end>
   2:	00 00       	nop
   4:	79 c0       	rjmp	.+242    	; 0xf8 <__bad_interrupt>
   6:	00 00       	nop
   8:	77 c0       	rjmp	.+238    	; 0xf8 <__bad_interrupt>
   a:	00 00       	nop
   c:	75 c0       	rjmp	.+234    	; 0xf8 <__bad_interrupt>
   e:	00 00       	nop
  10:	73 c0       	rjmp	.+230    	; 0xf8 <__bad_interrupt>
  12:	00 00       	nop
  14:	71 c0       	rjmp	.+226    	; 0xf8 <__bad_interrupt>
  16:	00 00       	nop
  18:	6f c0       	rjmp	.+222    	; 0xf8 <__bad_interrupt>
  1a:	00 00       	nop
  1c:	6d c0       	rjmp	.+218    	; 0xf8 <__bad_interrupt>
  1e:	00 00       	nop
  20:	6b c0       	rjmp	.+214    	; 0xf8 <__bad_interrupt>
  22:	00 00       	nop
  24:	69 c0       	rjmp	.+210    	; 0xf8 <__bad_interrupt>
  26:	00 00       	nop
  28:	67 c0       	rjmp	.+206    	; 0xf8 <__bad_interrupt>
  2a:	00 00       	nop
  2c:	65 c0       	rjmp	.+202    	; 0xf8 <__bad_interrupt>
  2e:	00 00       	nop
  30:	63 c0       	rjmp	.+198    	; 0xf8 <__bad_interrupt>
  32:	00 00       	nop
  34:	61 c0       	rjmp	.+194    	; 0xf8 <__bad_interrupt>
  36:	00 00       	nop
  38:	5f c0       	rjmp	.+190    	; 0xf8 <__bad_interrupt>
  3a:	00 00       	nop
  3c:	5d c0       	rjmp	.+186    	; 0xf8 <__bad_interrupt>
  3e:	00 00       	nop
  40:	5b c0       	rjmp	.+182    	; 0xf8 <__bad_interrupt>
  42:	00 00       	nop
  44:	59 c0       	rjmp	.+178    	; 0xf8 <__bad_interrupt>
  46:	00 00       	nop
  48:	57 c0       	rjmp	.+174    	; 0xf8 <__bad_interrupt>
  4a:	00 00       	nop
  4c:	55 c0       	rjmp	.+170    	; 0xf8 <__bad_interrupt>
  4e:	00 00       	nop
  50:	53 c0       	rjmp	.+166    	; 0xf8 <__bad_interrupt>
  52:	00 00       	nop
  54:	51 c0       	rjmp	.+162    	; 0xf8 <__bad_interrupt>
  56:	00 00       	nop
  58:	4f c0       	rjmp	.+158    	; 0xf8 <__bad_interrupt>
  5a:	00 00       	nop
  5c:	4d c0       	rjmp	.+154    	; 0xf8 <__bad_interrupt>
  5e:	00 00       	nop
  60:	4b c0       	rjmp	.+150    	; 0xf8 <__bad_interrupt>
  62:	00 00       	nop
  64:	49 c0       	rjmp	.+146    	; 0xf8 <__bad_interrupt>
  66:	00 00       	nop
  68:	47 c0       	rjmp	.+142    	; 0xf8 <__bad_interrupt>
  6a:	00 00       	nop
  6c:	45 c0       	rjmp	.+138    	; 0xf8 <__bad_interrupt>
  6e:	00 00       	nop
  70:	43 c0       	rjmp	.+134    	; 0xf8 <__bad_interrupt>
  72:	00 00       	nop
  74:	41 c0       	rjmp	.+130    	; 0xf8 <__bad_interrupt>
  76:	00 00       	nop
  78:	3f c0       	rjmp	.+126    	; 0xf8 <__bad_interrupt>
  7a:	00 00       	nop
  7c:	3d c0       	rjmp	.+122    	; 0xf8 <__bad_interrupt>
  7e:	00 00       	nop
  80:	3b c0       	rjmp	.+118    	; 0xf8 <__bad_interrupt>
  82:	00 00       	nop
  84:	39 c0       	rjmp	.+114    	; 0xf8 <__bad_interrupt>
  86:	00 00       	nop
  88:	37 c0       	rjmp	.+110    	; 0xf8 <__bad_interrupt>
  8a:	00 00       	nop
  8c:	35 c0       	rjmp	.+106    	; 0xf8 <__bad_interrupt>
  8e:	00 00       	nop
  90:	33 c0       	rjmp	.+102    	; 0xf8 <__bad_interrupt>
  92:	00 00       	nop
  94:	31 c0       	rjmp	.+98     	; 0xf8 <__bad_interrupt>
  96:	00 00       	nop
  98:	2f c0       	rjmp	.+94     	; 0xf8 <__bad_interrupt>
  9a:	00 00       	nop
  9c:	2d c0       	rjmp	.+90     	; 0xf8 <__bad_interrupt>
  9e:	00 00       	nop
  a0:	2b c0       	rjmp	.+86     	; 0xf8 <__bad_interrupt>
  a2:	00 00       	nop
  a4:	29 c0       	rjmp	.+82     	; 0xf8 <__bad_interrupt>
  a6:	00 00       	nop
  a8:	27 c0       	rjmp	.+78     	; 0xf8 <__bad_interrupt>
  aa:	00 00       	nop
  ac:	25 c0       	rjmp	.+74     	; 0xf8 <__bad_interrupt>
  ae:	00 00       	nop
  b0:	23 c0       	rjmp	.+70     	; 0xf8 <__bad_interrupt>
  b2:	00 00       	nop
  b4:	21 c0       	rjmp	.+66     	; 0xf8 <__bad_interrupt>
  b6:	00 00       	nop
  b8:	1f c0       	rjmp	.+62     	; 0xf8 <__bad_interrupt>
  ba:	00 00       	nop
  bc:	1d c0       	rjmp	.+58     	; 0xf8 <__bad_interrupt>
  be:	00 00       	nop
  c0:	1b c0       	rjmp	.+54     	; 0xf8 <__bad_interrupt>
  c2:	00 00       	nop
  c4:	19 c0       	rjmp	.+50     	; 0xf8 <__bad_interrupt>
  c6:	00 00       	nop
  c8:	17 c0       	rjmp	.+46     	; 0xf8 <__bad_interrupt>
  ca:	00 00       	nop
  cc:	15 c0       	rjmp	.+42     	; 0xf8 <__bad_interrupt>
  ce:	00 00       	nop
  d0:	13 c0       	rjmp	.+38     	; 0xf8 <__bad_interrupt>
  d2:	00 00       	nop
  d4:	11 c0       	rjmp	.+34     	; 0xf8 <__bad_interrupt>
  d6:	00 00       	nop
  d8:	0f c0       	rjmp	.+30     	; 0xf8 <__bad_interrupt>
  da:	00 00       	nop
  dc:	0d c0       	rjmp	.+26     	; 0xf8 <__bad_interrupt>
  de:	00 00       	nop
  e0:	0b c0       	rjmp	.+22     	; 0xf8 <__bad_interrupt>
	...

000000e4 <__ctors_end>:
  e4:	11 24       	eor	r1, r1
  e6:	1f be       	out	0x3f, r1	; 63
  e8:	cf ef       	ldi	r28, 0xFF	; 255
  ea:	d1 e2       	ldi	r29, 0x21	; 33
  ec:	de bf       	out	0x3e, r29	; 62
  ee:	cd bf       	out	0x3d, r28	; 61
  f0:	00 e0       	ldi	r16, 0x00	; 0
  f2:	0c bf       	out	0x3c, r16	; 60
  f4:	19 d0       	rcall	.+50     	; 0x128 <main>
  f6:	1a c0       	rjmp	.+52     	; 0x12c <_exit>

000000f8 <__bad_interrupt>:
  f8:	83 cf       	rjmp	.-250    	; 0x0 <__vectors>

000000fa <_Z9run_motorv>:
#include <avr/io.h>
#include <util/delay.h>

void run_motor()
{
	DDRA = 0xFF; //direction port as output
  fa:	8f ef       	ldi	r24, 0xFF	; 255
  fc:	81 b9       	out	0x01, r24	; 1
	DDRL = 0xFF; //pwm port as output
  fe:	80 93 0a 01 	sts	0x010A, r24	; 0x80010a <__TEXT_REGION_LENGTH__+0x70010a>
	
	PORTA = (1<<PA1) | (1<<PA2); //set direction
 102:	86 e0       	ldi	r24, 0x06	; 6
 104:	82 b9       	out	0x02, r24	; 2
	
	TCCR5A = (1<<COM5A1)|(1<<COM5B1)|(1<<WGM50);//set compare output modes for motors
 106:	81 ea       	ldi	r24, 0xA1	; 161
 108:	80 93 20 01 	sts	0x0120, r24	; 0x800120 <__TEXT_REGION_LENGTH__+0x700120>
	OCR5A = 255;
 10c:	8f ef       	ldi	r24, 0xFF	; 255
 10e:	90 e0       	ldi	r25, 0x00	; 0
 110:	90 93 29 01 	sts	0x0129, r25	; 0x800129 <__TEXT_REGION_LENGTH__+0x700129>
 114:	80 93 28 01 	sts	0x0128, r24	; 0x800128 <__TEXT_REGION_LENGTH__+0x700128>
	OCR5B = 255;//set motor speeds
 118:	90 93 2b 01 	sts	0x012B, r25	; 0x80012b <__TEXT_REGION_LENGTH__+0x70012b>
 11c:	80 93 2a 01 	sts	0x012A, r24	; 0x80012a <__TEXT_REGION_LENGTH__+0x70012a>
	TCCR5B = (1<<WGM52) | (1<<CS50) | (1<<CS52);//set pwm mode
 120:	8d e0       	ldi	r24, 0x0D	; 13
 122:	80 93 21 01 	sts	0x0121, r24	; 0x800121 <__TEXT_REGION_LENGTH__+0x700121>
 126:	08 95       	ret

00000128 <main>:
}

int main(void)
{
    /* Replace with your application code */
	run_motor();
 128:	e8 df       	rcall	.-48     	; 0xfa <_Z9run_motorv>
 12a:	ff cf       	rjmp	.-2      	; 0x12a <main+0x2>

0000012c <_exit>:
 12c:	f8 94       	cli

0000012e <__stop_program>:
 12e:	ff cf       	rjmp	.-2      	; 0x12e <__stop_program>
